{
  "_format": "hh-sol-artifact-1",
  "contractName": "Campaign",
  "sourceName": "contracts/CrowdFunding.sol",
  "abi": [
    {
      "inputs": [
        {
          "internalType": "string",
          "name": "_title",
          "type": "string"
        },
        {
          "internalType": "string",
          "name": "_image",
          "type": "string"
        },
        {
          "internalType": "string",
          "name": "_description",
          "type": "string"
        },
        {
          "internalType": "uint256",
          "name": "_requiredAmount",
          "type": "uint256"
        },
        {
          "internalType": "address",
          "name": "_campaignOwner",
          "type": "address"
        }
      ],
      "stateMutability": "nonpayable",
      "type": "constructor"
    },
    {
      "anonymous": false,
      "inputs": [
        {
          "indexed": true,
          "internalType": "address",
          "name": "funder",
          "type": "address"
        },
        {
          "indexed": true,
          "internalType": "uint256",
          "name": "timestamp",
          "type": "uint256"
        },
        {
          "indexed": false,
          "internalType": "uint256",
          "name": "amount",
          "type": "uint256"
        }
      ],
      "name": "campaignFunded",
      "type": "event"
    },
    {
      "inputs": [],
      "name": "fundCampaign",
      "outputs": [],
      "stateMutability": "payable",
      "type": "function"
    },
    {
      "inputs": [],
      "name": "getCampaign",
      "outputs": [
        {
          "components": [
            {
              "internalType": "string",
              "name": "title",
              "type": "string"
            },
            {
              "internalType": "string",
              "name": "image",
              "type": "string"
            },
            {
              "internalType": "string",
              "name": "description",
              "type": "string"
            },
            {
              "internalType": "uint256",
              "name": "requiredAmount",
              "type": "uint256"
            },
            {
              "internalType": "uint256",
              "name": "recievedAmount",
              "type": "uint256"
            },
            {
              "internalType": "address payable",
              "name": "campaignOwner",
              "type": "address"
            }
          ],
          "internalType": "struct Campaign.CampaignStruct",
          "name": "",
          "type": "tuple"
        }
      ],
      "stateMutability": "view",
      "type": "function"
    }
  ],
  "bytecode": "0x60806040523480156200001157600080fd5b5060405162000dba38038062000dba83398181016040528101906200003791906200042f565b6040518060c00160405280868152602001858152602001848152602001838152602001600081526020018273ffffffffffffffffffffffffffffffffffffffff168152506000808201518160000190805190602001906200009a92919062000142565b506020820151816001019080519060200190620000b992919062000142565b506040820151816002019080519060200190620000d892919062000142565b50606082015181600301556080820151816004015560a08201518160050160006101000a81548173ffffffffffffffffffffffffffffffffffffffff021916908373ffffffffffffffffffffffffffffffffffffffff160217905550905050505050505062000579565b828054620001509062000543565b90600052602060002090601f016020900481019282620001745760008555620001c0565b82601f106200018f57805160ff1916838001178555620001c0565b82800160010185558215620001c0579182015b82811115620001bf578251825591602001919060010190620001a2565b5b509050620001cf9190620001d3565b5090565b5b80821115620001ee576000816000905550600101620001d4565b5090565b6000604051905090565b600080fd5b600080fd5b600080fd5b600080fd5b6000601f19601f8301169050919050565b7f4e487b7100000000000000000000000000000000000000000000000000000000600052604160045260246000fd5b6200025b8262000210565b810181811067ffffffffffffffff821117156200027d576200027c62000221565b5b80604052505050565b600062000292620001f2565b9050620002a0828262000250565b919050565b600067ffffffffffffffff821115620002c357620002c262000221565b5b620002ce8262000210565b9050602081019050919050565b60005b83811015620002fb578082015181840152602081019050620002de565b838111156200030b576000848401525b50505050565b6000620003286200032284620002a5565b62000286565b9050828152602081018484840111156200034757620003466200020b565b5b62000354848285620002db565b509392505050565b600082601f83011262000374576200037362000206565b5b81516200038684826020860162000311565b91505092915050565b6000819050919050565b620003a4816200038f565b8114620003b057600080fd5b50565b600081519050620003c48162000399565b92915050565b600073ffffffffffffffffffffffffffffffffffffffff82169050919050565b6000620003f782620003ca565b9050919050565b6200040981620003ea565b81146200041557600080fd5b50565b6000815190506200042981620003fe565b92915050565b600080600080600060a086880312156200044e576200044d620001fc565b5b600086015167ffffffffffffffff8111156200046f576200046e62000201565b5b6200047d888289016200035c565b955050602086015167ffffffffffffffff811115620004a157620004a062000201565b5b620004af888289016200035c565b945050604086015167ffffffffffffffff811115620004d357620004d262000201565b5b620004e1888289016200035c565b9350506060620004f488828901620003b3565b9250506080620005078882890162000418565b9150509295509295909350565b7f4e487b7100000000000000000000000000000000000000000000000000000000600052602260045260246000fd5b600060028204905060018216806200055c57607f821691505b6020821081141562000573576200057262000514565b5b50919050565b61083180620005896000396000f3fe6080604052600436106100295760003560e01c8063236b8e3a1461002e5780634a64e52e14610059575b600080fd5b34801561003a57600080fd5b50610043610063565b60405161005091906105e0565b60405180910390f35b61006161029d565b005b61006b61040a565b60006040518060c001604052908160008201805461008890610631565b80601f01602080910402602001604051908101604052809291908181526020018280546100b490610631565b80156101015780601f106100d657610100808354040283529160200191610101565b820191906000526020600020905b8154815290600101906020018083116100e457829003601f168201915b5050505050815260200160018201805461011a90610631565b80601f016020809104026020016040519081016040528092919081815260200182805461014690610631565b80156101935780601f1061016857610100808354040283529160200191610193565b820191906000526020600020905b81548152906001019060200180831161017657829003601f168201915b505050505081526020016002820180546101ac90610631565b80601f01602080910402602001604051908101604052809291908181526020018280546101d890610631565b80156102255780601f106101fa57610100808354040283529160200191610225565b820191906000526020600020905b81548152906001019060200180831161020857829003601f168201915b5050505050815260200160038201548152602001600482015481526020016005820160009054906101000a900473ffffffffffffffffffffffffffffffffffffffff1673ffffffffffffffffffffffffffffffffffffffff1673ffffffffffffffffffffffffffffffffffffffff1681525050905090565b600060040154600060030154116102e9576040517f08c379a00000000000000000000000000000000000000000000000000000000081526004016102e0906106c0565b60405180910390fd5b600060030154341115610331576040517f08c379a00000000000000000000000000000000000000000000000000000000081526004016103289061072c565b60405180910390fd5b600060050160009054906101000a900473ffffffffffffffffffffffffffffffffffffffff1673ffffffffffffffffffffffffffffffffffffffff166108fc349081150290604051600060405180830381858888f1935050505015801561039c573d6000803e3d6000fd5b5034600060040160008282546103b2919061077b565b92505081905550423373ffffffffffffffffffffffffffffffffffffffff167f3f1702f93d870d7298a5673461a2be2d646ce054ecce78656f0e241b290e7ee63460405161040091906107e0565b60405180910390a3565b6040518060c001604052806060815260200160608152602001606081526020016000815260200160008152602001600073ffffffffffffffffffffffffffffffffffffffff1681525090565b600081519050919050565b600082825260208201905092915050565b60005b83811015610490578082015181840152602081019050610475565b8381111561049f576000848401525b50505050565b6000601f19601f8301169050919050565b60006104c182610456565b6104cb8185610461565b93506104db818560208601610472565b6104e4816104a5565b840191505092915050565b6000819050919050565b610502816104ef565b82525050565b600073ffffffffffffffffffffffffffffffffffffffff82169050919050565b600061053382610508565b9050919050565b61054381610528565b82525050565b600060c083016000830151848203600086015261056682826104b6565b9150506020830151848203602086015261058082826104b6565b9150506040830151848203604086015261059a82826104b6565b91505060608301516105af60608601826104f9565b5060808301516105c260808601826104f9565b5060a08301516105d560a086018261053a565b508091505092915050565b600060208201905081810360008301526105fa8184610549565b905092915050565b7f4e487b7100000000000000000000000000000000000000000000000000000000600052602260045260246000fd5b6000600282049050600182168061064957607f821691505b6020821081141561065d5761065c610602565b5b50919050565b600082825260208201905092915050565b7f416d6f756e742065786369646564000000000000000000000000000000000000600082015250565b60006106aa600e83610663565b91506106b582610674565b602082019050919050565b600060208201905081810360008301526106d98161069d565b9050919050565b7f616d6f756e74206d6f7265207468656e20746865206e65656465642e00000000600082015250565b6000610716601c83610663565b9150610721826106e0565b602082019050919050565b6000602082019050818103600083015261074581610709565b9050919050565b7f4e487b7100000000000000000000000000000000000000000000000000000000600052601160045260246000fd5b6000610786826104ef565b9150610791836104ef565b9250827fffffffffffffffffffffffffffffffffffffffffffffffffffffffffffffffff038211156107c6576107c561074c565b5b828201905092915050565b6107da816104ef565b82525050565b60006020820190506107f560008301846107d1565b9291505056fea26469706673582212202886dc5c0e6e38fff8d6ca7244e47cf55d9a71abebb058d56b0a104c34ebd4bb64736f6c634300080a0033",
  "linkReferences": {},
  "deployedLinkReferences": {}
}