{
  "_format": "hh-sol-artifact-1",
  "contractName": "CrowdFunding",
  "sourceName": "contracts/CrowdFunding.sol",
  "abi": [
    {
      "anonymous": false,
      "inputs": [
        {
          "indexed": false,
          "internalType": "string",
          "name": "_title",
          "type": "string"
        },
        {
          "indexed": false,
          "internalType": "string",
          "name": "_image",
          "type": "string"
        },
        {
          "indexed": true,
          "internalType": "string",
          "name": "_category",
          "type": "string"
        },
        {
          "indexed": false,
          "internalType": "uint256",
          "name": "_requiredAmount",
          "type": "uint256"
        },
        {
          "indexed": true,
          "internalType": "uint256",
          "name": "_timestamp",
          "type": "uint256"
        },
        {
          "indexed": true,
          "internalType": "address",
          "name": "_campaignOwner",
          "type": "address"
        },
        {
          "indexed": false,
          "internalType": "address",
          "name": "_campaignAddress",
          "type": "address"
        }
      ],
      "name": "campaignCreated",
      "type": "event"
    },
    {
      "inputs": [
        {
          "internalType": "string",
          "name": "_title",
          "type": "string"
        },
        {
          "internalType": "string",
          "name": "_image",
          "type": "string"
        },
        {
          "internalType": "string",
          "name": "_description",
          "type": "string"
        },
        {
          "internalType": "string",
          "name": "_category",
          "type": "string"
        },
        {
          "internalType": "uint256",
          "name": "_requiredAmount",
          "type": "uint256"
        }
      ],
      "name": "createCampaign",
      "outputs": [],
      "stateMutability": "nonpayable",
      "type": "function"
    },
    {
      "inputs": [],
      "name": "getAllCampaignAddresses",
      "outputs": [
        {
          "internalType": "address[]",
          "name": "",
          "type": "address[]"
        }
      ],
      "stateMutability": "view",
      "type": "function"
    }
  ],
  "bytecode": "0x608060405234801561001057600080fd5b50611558806100206000396000f3fe60806040523480156200001157600080fd5b50600436106200003a5760003560e01c80637a2453d9146200003f5780638b2fad63146200005f575b600080fd5b6200005d6004803603810190620000579190620003ed565b62000081565b005b620000696200019e565b604051620000789190620005f3565b60405180910390f35b60008585858460405162000095906200022e565b620000a49493929190620006bb565b604051809103906000f080158015620000c1573d6000803e3d6000fd5b5090506000819080600181540180825580915050600190039060005260206000200160009091909190916101000a81548173ffffffffffffffffffffffffffffffffffffffff021916908373ffffffffffffffffffffffffffffffffffffffff1602179055503373ffffffffffffffffffffffffffffffffffffffff1642846040516200014f91906200075f565b60405180910390207f0f4a8465a18439b302f3654f6959eb68149d3756b5c876237cd84dec1814e4b8898987876040516200018e949392919062000789565b60405180910390a4505050505050565b606060008054806020026020016040519081016040528092919081815260200182805480156200022457602002820191906000526020600020905b8160009054906101000a900473ffffffffffffffffffffffffffffffffffffffff1673ffffffffffffffffffffffffffffffffffffffff1681526020019060010190808311620001d9575b5050505050905090565b610d3e80620007e583390190565b6000604051905090565b600080fd5b600080fd5b600080fd5b600080fd5b6000601f19601f8301169050919050565b7f4e487b7100000000000000000000000000000000000000000000000000000000600052604160045260246000fd5b620002a5826200025a565b810181811067ffffffffffffffff82111715620002c757620002c66200026b565b5b80604052505050565b6000620002dc6200023c565b9050620002ea82826200029a565b919050565b600067ffffffffffffffff8211156200030d576200030c6200026b565b5b62000318826200025a565b9050602081019050919050565b82818337600083830152505050565b60006200034b6200034584620002ef565b620002d0565b9050828152602081018484840111156200036a576200036962000255565b5b6200037784828562000325565b509392505050565b600082601f83011262000397576200039662000250565b5b8135620003a984826020860162000334565b91505092915050565b6000819050919050565b620003c781620003b2565b8114620003d357600080fd5b50565b600081359050620003e781620003bc565b92915050565b600080600080600060a086880312156200040c576200040b62000246565b5b600086013567ffffffffffffffff8111156200042d576200042c6200024b565b5b6200043b888289016200037f565b955050602086013567ffffffffffffffff8111156200045f576200045e6200024b565b5b6200046d888289016200037f565b945050604086013567ffffffffffffffff8111156200049157620004906200024b565b5b6200049f888289016200037f565b935050606086013567ffffffffffffffff811115620004c357620004c26200024b565b5b620004d1888289016200037f565b9250506080620004e488828901620003d6565b9150509295509295909350565b600081519050919050565b600082825260208201905092915050565b6000819050602082019050919050565b600073ffffffffffffffffffffffffffffffffffffffff82169050919050565b60006200054a826200051d565b9050919050565b6200055c816200053d565b82525050565b600062000570838362000551565b60208301905092915050565b6000602082019050919050565b60006200059682620004f1565b620005a28185620004fc565b9350620005af836200050d565b8060005b83811015620005e6578151620005ca888262000562565b9750620005d7836200057c565b925050600181019050620005b3565b5085935050505092915050565b600060208201905081810360008301526200060f818462000589565b905092915050565b600081519050919050565b600082825260208201905092915050565b60005b838110156200065357808201518184015260208101905062000636565b8381111562000663576000848401525b50505050565b6000620006768262000617565b62000682818562000622565b93506200069481856020860162000633565b6200069f816200025a565b840191505092915050565b620006b581620003b2565b82525050565b60006080820190508181036000830152620006d7818762000669565b90508181036020830152620006ed818662000669565b9050818103604083015262000703818562000669565b9050620007146060830184620006aa565b95945050505050565b600081905092915050565b6000620007358262000617565b6200074181856200071d565b93506200075381856020860162000633565b80840191505092915050565b60006200076d828462000728565b915081905092915050565b62000783816200053d565b82525050565b60006080820190508181036000830152620007a5818762000669565b90508181036020830152620007bb818662000669565b9050620007cc6040830185620006aa565b620007db606083018462000778565b9594505050505056fe60806040523480156200001157600080fd5b5060405162000d3e38038062000d3e8339818101604052810190620000379190620003c9565b6040518060c00160405280858152602001848152602001838152602001828152602001600081526020013373ffffffffffffffffffffffffffffffffffffffff168152506000808201518160000190805190602001906200009a92919062000141565b506020820151816001019080519060200190620000b992919062000141565b506040820151816002019080519060200190620000d892919062000141565b50606082015181600301556080820151816004015560a08201518160050160006101000a81548173ffffffffffffffffffffffffffffffffffffffff021916908373ffffffffffffffffffffffffffffffffffffffff16021790555090505050505050620004fd565b8280546200014f90620004c7565b90600052602060002090601f016020900481019282620001735760008555620001bf565b82601f106200018e57805160ff1916838001178555620001bf565b82800160010185558215620001bf579182015b82811115620001be578251825591602001919060010190620001a1565b5b509050620001ce9190620001d2565b5090565b5b80821115620001ed576000816000905550600101620001d3565b5090565b6000604051905090565b600080fd5b600080fd5b600080fd5b600080fd5b6000601f19601f8301169050919050565b7f4e487b7100000000000000000000000000000000000000000000000000000000600052604160045260246000fd5b6200025a826200020f565b810181811067ffffffffffffffff821117156200027c576200027b62000220565b5b80604052505050565b600062000291620001f1565b90506200029f82826200024f565b919050565b600067ffffffffffffffff821115620002c257620002c162000220565b5b620002cd826200020f565b9050602081019050919050565b60005b83811015620002fa578082015181840152602081019050620002dd565b838111156200030a576000848401525b50505050565b6000620003276200032184620002a4565b62000285565b9050828152602081018484840111156200034657620003456200020a565b5b62000353848285620002da565b509392505050565b600082601f83011262000373576200037262000205565b5b81516200038584826020860162000310565b91505092915050565b6000819050919050565b620003a3816200038e565b8114620003af57600080fd5b50565b600081519050620003c38162000398565b92915050565b60008060008060808587031215620003e657620003e5620001fb565b5b600085015167ffffffffffffffff81111562000407576200040662000200565b5b62000415878288016200035b565b945050602085015167ffffffffffffffff81111562000439576200043862000200565b5b62000447878288016200035b565b935050604085015167ffffffffffffffff8111156200046b576200046a62000200565b5b62000479878288016200035b565b92505060606200048c87828801620003b2565b91505092959194509250565b7f4e487b7100000000000000000000000000000000000000000000000000000000600052602260045260246000fd5b60006002820490506001821680620004e057607f821691505b60208210811415620004f757620004f662000498565b5b50919050565b610831806200050d6000396000f3fe6080604052600436106100295760003560e01c8063236b8e3a1461002e5780634a64e52e14610059575b600080fd5b34801561003a57600080fd5b50610043610063565b60405161005091906105e0565b60405180910390f35b61006161029d565b005b61006b61040a565b60006040518060c001604052908160008201805461008890610631565b80601f01602080910402602001604051908101604052809291908181526020018280546100b490610631565b80156101015780601f106100d657610100808354040283529160200191610101565b820191906000526020600020905b8154815290600101906020018083116100e457829003601f168201915b5050505050815260200160018201805461011a90610631565b80601f016020809104026020016040519081016040528092919081815260200182805461014690610631565b80156101935780601f1061016857610100808354040283529160200191610193565b820191906000526020600020905b81548152906001019060200180831161017657829003601f168201915b505050505081526020016002820180546101ac90610631565b80601f01602080910402602001604051908101604052809291908181526020018280546101d890610631565b80156102255780601f106101fa57610100808354040283529160200191610225565b820191906000526020600020905b81548152906001019060200180831161020857829003601f168201915b5050505050815260200160038201548152602001600482015481526020016005820160009054906101000a900473ffffffffffffffffffffffffffffffffffffffff1673ffffffffffffffffffffffffffffffffffffffff1673ffffffffffffffffffffffffffffffffffffffff1681525050905090565b600060040154600060030154116102e9576040517f08c379a00000000000000000000000000000000000000000000000000000000081526004016102e0906106c0565b60405180910390fd5b600060030154341115610331576040517f08c379a00000000000000000000000000000000000000000000000000000000081526004016103289061072c565b60405180910390fd5b600060050160009054906101000a900473ffffffffffffffffffffffffffffffffffffffff1673ffffffffffffffffffffffffffffffffffffffff166108fc349081150290604051600060405180830381858888f1935050505015801561039c573d6000803e3d6000fd5b5034600060040160008282546103b2919061077b565b92505081905550423373ffffffffffffffffffffffffffffffffffffffff167f3f1702f93d870d7298a5673461a2be2d646ce054ecce78656f0e241b290e7ee63460405161040091906107e0565b60405180910390a3565b6040518060c001604052806060815260200160608152602001606081526020016000815260200160008152602001600073ffffffffffffffffffffffffffffffffffffffff1681525090565b600081519050919050565b600082825260208201905092915050565b60005b83811015610490578082015181840152602081019050610475565b8381111561049f576000848401525b50505050565b6000601f19601f8301169050919050565b60006104c182610456565b6104cb8185610461565b93506104db818560208601610472565b6104e4816104a5565b840191505092915050565b6000819050919050565b610502816104ef565b82525050565b600073ffffffffffffffffffffffffffffffffffffffff82169050919050565b600061053382610508565b9050919050565b61054381610528565b82525050565b600060c083016000830151848203600086015261056682826104b6565b9150506020830151848203602086015261058082826104b6565b9150506040830151848203604086015261059a82826104b6565b91505060608301516105af60608601826104f9565b5060808301516105c260808601826104f9565b5060a08301516105d560a086018261053a565b508091505092915050565b600060208201905081810360008301526105fa8184610549565b905092915050565b7f4e487b7100000000000000000000000000000000000000000000000000000000600052602260045260246000fd5b6000600282049050600182168061064957607f821691505b6020821081141561065d5761065c610602565b5b50919050565b600082825260208201905092915050565b7f416d6f756e742065786369646564000000000000000000000000000000000000600082015250565b60006106aa600e83610663565b91506106b582610674565b602082019050919050565b600060208201905081810360008301526106d98161069d565b9050919050565b7f616d6f756e74206d6f7265207468656e20746865206e65656465642e00000000600082015250565b6000610716601c83610663565b9150610721826106e0565b602082019050919050565b6000602082019050818103600083015261074581610709565b9050919050565b7f4e487b7100000000000000000000000000000000000000000000000000000000600052601160045260246000fd5b6000610786826104ef565b9150610791836104ef565b9250827fffffffffffffffffffffffffffffffffffffffffffffffffffffffffffffffff038211156107c6576107c561074c565b5b828201905092915050565b6107da816104ef565b82525050565b60006020820190506107f560008301846107d1565b9291505056fea2646970667358221220146bd7b8c3ed83e0f9de89be5a6b393847644f08c5bf942f19681ac8bd8022df64736f6c634300080a0033a264697066735822122098707078e7d09e4ae32ce159bae9b46337df052ce2edda8869ef72d9b2f074b164736f6c634300080a0033",
  "linkReferences": {},
  "deployedLinkReferences": {}
}